{
  "contractName": "CryptoCars",
  "abi": [
    {
      "constant": false,
      "inputs": [],
      "name": "renounceOwnership",
      "outputs": [],
      "payable": false,
      "stateMutability": "nonpayable",
      "type": "function"
    },
    {
      "constant": true,
      "inputs": [
        {
          "name": "",
          "type": "address"
        },
        {
          "name": "",
          "type": "uint256"
        }
      ],
      "name": "ownerToCars",
      "outputs": [
        {
          "name": "",
          "type": "string"
        }
      ],
      "payable": false,
      "stateMutability": "view",
      "type": "function"
    },
    {
      "constant": true,
      "inputs": [],
      "name": "owner",
      "outputs": [
        {
          "name": "",
          "type": "address"
        }
      ],
      "payable": false,
      "stateMutability": "view",
      "type": "function"
    },
    {
      "constant": true,
      "inputs": [
        {
          "name": "",
          "type": "address"
        }
      ],
      "name": "moneySpent",
      "outputs": [
        {
          "name": "",
          "type": "int256"
        }
      ],
      "payable": false,
      "stateMutability": "view",
      "type": "function"
    },
    {
      "constant": false,
      "inputs": [
        {
          "name": "_newOwner",
          "type": "address"
        }
      ],
      "name": "transferOwnership",
      "outputs": [],
      "payable": false,
      "stateMutability": "nonpayable",
      "type": "function"
    },
    {
      "anonymous": false,
      "inputs": [
        {
          "indexed": false,
          "name": "buyer",
          "type": "address"
        },
        {
          "indexed": false,
          "name": "paid",
          "type": "uint256"
        },
        {
          "indexed": false,
          "name": "model",
          "type": "string"
        }
      ],
      "name": "CarBought",
      "type": "event"
    },
    {
      "anonymous": false,
      "inputs": [
        {
          "indexed": false,
          "name": "amount",
          "type": "uint256"
        },
        {
          "indexed": false,
          "name": "timestamp",
          "type": "uint256"
        }
      ],
      "name": "LogWithdrawal",
      "type": "event"
    },
    {
      "anonymous": false,
      "inputs": [
        {
          "indexed": true,
          "name": "previousOwner",
          "type": "address"
        }
      ],
      "name": "OwnershipRenounced",
      "type": "event"
    },
    {
      "anonymous": false,
      "inputs": [
        {
          "indexed": true,
          "name": "previousOwner",
          "type": "address"
        },
        {
          "indexed": true,
          "name": "newOwner",
          "type": "address"
        }
      ],
      "name": "OwnershipTransferred",
      "type": "event"
    },
    {
      "constant": false,
      "inputs": [
        {
          "name": "modelName",
          "type": "string"
        }
      ],
      "name": "buy",
      "outputs": [],
      "payable": true,
      "stateMutability": "payable",
      "type": "function"
    },
    {
      "constant": true,
      "inputs": [
        {
          "name": "modelName",
          "type": "string"
        }
      ],
      "name": "carInfo",
      "outputs": [
        {
          "name": "ownerAddress",
          "type": "address"
        },
        {
          "name": "price",
          "type": "uint256"
        }
      ],
      "payable": false,
      "stateMutability": "view",
      "type": "function"
    },
    {
      "constant": false,
      "inputs": [],
      "name": "withdraw",
      "outputs": [],
      "payable": false,
      "stateMutability": "nonpayable",
      "type": "function"
    },
    {
      "constant": true,
      "inputs": [
        {
          "name": "owner",
          "type": "address"
        }
      ],
      "name": "getCarsCountOfOwner",
      "outputs": [
        {
          "name": "",
          "type": "uint256"
        }
      ],
      "payable": false,
      "stateMutability": "view",
      "type": "function"
    }
  ],
  "bytecode": "0x6080604052336000806101000a81548173ffffffffffffffffffffffffffffffffffffffff021916908373ffffffffffffffffffffffffffffffffffffffff160217905550611847806100536000396000f300608060405260043610610099576000357c0100000000000000000000000000000000000000000000000000000000900463ffffffff1680631049f50a1461009e5780633ccfd60b1461014e578063492cc76914610165578063639de522146101c1578063715018a6146102185780638c61291e1461022f5780638da5cb5b146102f5578063b4fce4f41461034c578063f2fde38b146103a3575b600080fd5b3480156100aa57600080fd5b50610105600480360381019080803590602001908201803590602001908080601f01602080910402602001604051908101604052809392919081815260200183838082843782019150505050505091929192905050506103e6565b604051808373ffffffffffffffffffffffffffffffffffffffff1673ffffffffffffffffffffffffffffffffffffffff1681526020018281526020019250505060405180910390f35b34801561015a57600080fd5b506101636104f0565b005b6101bf600480360381019080803590602001908201803590602001908080601f01602080910402602001604051908101604052809392919081815260200183838082843782019150505050505091929192905050506106a0565b005b3480156101cd57600080fd5b50610202600480360381019080803573ffffffffffffffffffffffffffffffffffffffff1690602001909291905050506110d1565b6040518082815260200191505060405180910390f35b34801561022457600080fd5b5061022d61111d565b005b34801561023b57600080fd5b5061027a600480360381019080803573ffffffffffffffffffffffffffffffffffffffff1690602001909291908035906020019092919050505061121f565b6040518080602001828103825283818151815260200191508051906020019080838360005b838110156102ba57808201518184015260208101905061029f565b50505050905090810190601f1680156102e75780820380516001836020036101000a031916815260200191505b509250505060405180910390f35b34801561030157600080fd5b5061030a6112e7565b604051808273ffffffffffffffffffffffffffffffffffffffff1673ffffffffffffffffffffffffffffffffffffffff16815260200191505060405180910390f35b34801561035857600080fd5b5061038d600480360381019080803573ffffffffffffffffffffffffffffffffffffffff16906020019092919050505061130c565b6040518082815260200191505060405180910390f35b3480156103af57600080fd5b506103e4600480360381019080803573ffffffffffffffffffffffffffffffffffffffff169060200190929190505050611324565b005b6000806001836040518082805190602001908083835b60208310151561042157805182526020820191506020810190506020830392506103fc565b6001836020036101000a038019825116818451168082178552505050505050905001915050908152602001604051809103902060010160009054906101000a900473ffffffffffffffffffffffffffffffffffffffff166001846040518082805190602001908083835b6020831015156104b0578051825260208201915060208101905060208303925061048b565b6001836020036101000a03801982511681845116808217855250505050505090500191505090815260200160405180910390206000015491509150915091565b60008060009054906101000a900473ffffffffffffffffffffffffffffffffffffffff1673ffffffffffffffffffffffffffffffffffffffff163373ffffffffffffffffffffffffffffffffffffffff1614151561054d57600080fd5b3073ffffffffffffffffffffffffffffffffffffffff163190506000811115156105df576040517f08c379a00000000000000000000000000000000000000000000000000000000081526004018080602001828103825260158152602001807f436f6e74726163742062616c616e63652069732030000000000000000000000081525060200191505060405180910390fd5b6000809054906101000a900473ffffffffffffffffffffffffffffffffffffffff1673ffffffffffffffffffffffffffffffffffffffff166108fc3073ffffffffffffffffffffffffffffffffffffffff16319081150290604051600060405180830381858888f1935050505015801561065d573d6000803e3d6000fd5b507fd13a5da6bc8ac80614509e23ebe361a43965fa427ce0bcb49e6926016ee51ff08142604051808381526020018281526020019250505060405180910390a150565b6000806001836040518082805190602001908083835b6020831015156106db57805182526020820191506020810190506020830392506106b6565b6001836020036101000a038019825116818451168082178552505050505050905001915050908152602001604051809103902060000154600014156107c557670de0b6b3a764000034101515156107c0576040517f08c379a000000000000000000000000000000000000000000000000000000000815260040180806020018281038252602a8152602001807f5468652065746865722073656e742077617320746f6f206c6f7720666f72206981526020017f6e697469616c206275790000000000000000000000000000000000000000000081525060400191505060405180910390fd5b610d53565b60026001846040518082805190602001908083835b6020831015156107ff57805182526020820191506020810190506020830392506107da565b6001836020036101000a038019825116818451168082178552505050505050905001915050908152602001604051809103902060000154340381151561084157fe5b046001846040518082805190602001908083835b60208310151561087a5780518252602082019150602081019050602083039250610855565b6001836020036101000a038019825116818451168082178552505050505050905001915050908152602001604051809103902060000154019150600260036001856040518082805190602001908083835b6020831015156108f057805182526020820191506020810190506020830392506108cb565b6001836020036101000a0380198251168184511680821785525050505050509050019150509081526020016040518091039020600001540281151561093157fe5b0434101515156109cf576040517f08c379a00000000000000000000000000000000000000000000000000000000081526004018080602001828103825260288152602001807f5468652065746865722073656e742077617320746f6f206c6f7720666f72206181526020017f2072652d73616c6500000000000000000000000000000000000000000000000081525060400191505060405180910390fd5b6001836040518082805190602001908083835b602083101515610a0757805182526020820191506020810190506020830392506109e2565b6001836020036101000a038019825116818451168082178552505050505050905001915050908152602001604051809103902060010160009054906101000a900473ffffffffffffffffffffffffffffffffffffffff1673ffffffffffffffffffffffffffffffffffffffff163373ffffffffffffffffffffffffffffffffffffffff1614151515610b27576040517f08c379a00000000000000000000000000000000000000000000000000000000081526004018080602001828103825260248152602001807f547279696e6720746f2072652d73656c6c20612063617220746f2073616d652081526020017f757365720000000000000000000000000000000000000000000000000000000081525060400191505060405180910390fd5b6001836040518082805190602001908083835b602083101515610b5f5780518252602082019150602081019050602083039250610b3a565b6001836020036101000a038019825116818451168082178552505050505050905001915050908152602001604051809103902060010160009054906101000a900473ffffffffffffffffffffffffffffffffffffffff169050610cbe6001846040518082805190602001908083835b602083101515610bf35780518252602082019150602081019050602083039250610bce565b6001836020036101000a038019825116818451168082178552505050505050905001915050908152602001604051809103902060010160009054906101000a900473ffffffffffffffffffffffffffffffffffffffff166001856040518082805190602001908083835b602083101515610c825780518252602082019150602081019050602083039250610c5d565b6001836020036101000a03801982511681845116808217855250505050505090500191505090815260200160405180910390206002015461138b565b8073ffffffffffffffffffffffffffffffffffffffff166108fc839081150290604051600060405180830381858888f19350505050158015610d04573d6000803e3d6000fd5b5081600360008373ffffffffffffffffffffffffffffffffffffffff1673ffffffffffffffffffffffffffffffffffffffff168152602001908152602001600020600082825403925050819055505b346001846040518082805190602001908083835b602083101515610d8c5780518252602082019150602081019050602083039250610d67565b6001836020036101000a038019825116818451168082178552505050505050905001915050908152602001604051809103902060000181905550336001846040518082805190602001908083835b602083101515610dff5780518252602082019150602081019050602083039250610dda565b6001836020036101000a038019825116818451168082178552505050505050905001915050908152602001604051809103902060010160006101000a81548173ffffffffffffffffffffffffffffffffffffffff021916908373ffffffffffffffffffffffffffffffffffffffff160217905550600260003373ffffffffffffffffffffffffffffffffffffffff1673ffffffffffffffffffffffffffffffffffffffff168152602001908152602001600020839080600181540180825580915050906001820390600052602060002001600090919290919091509080519060200190610eed92919061164f565b50506001600260003373ffffffffffffffffffffffffffffffffffffffff1673ffffffffffffffffffffffffffffffffffffffff16815260200190815260200160002080549050036001846040518082805190602001908083835b602083101515610f6d5780518252602082019150602081019050602083039250610f48565b6001836020036101000a03801982511681845116808217855250505050505090500191505090815260200160405180910390206002018190555034600360003373ffffffffffffffffffffffffffffffffffffffff1673ffffffffffffffffffffffffffffffffffffffff168152602001908152602001600020600082825401925050819055507f123711b8ccdecacde335a1a32fe2ea9faddc07701c4b75f3a0c7ad3fc1061fc6333485604051808473ffffffffffffffffffffffffffffffffffffffff1673ffffffffffffffffffffffffffffffffffffffff16815260200183815260200180602001828103825283818151815260200191508051906020019080838360005b83811015611090578082015181840152602081019050611075565b50505050905090810190601f1680156110bd5780820380516001836020036101000a031916815260200191505b5094505050505060405180910390a1505050565b6000600260008373ffffffffffffffffffffffffffffffffffffffff1673ffffffffffffffffffffffffffffffffffffffff168152602001908152602001600020805490509050919050565b6000809054906101000a900473ffffffffffffffffffffffffffffffffffffffff1673ffffffffffffffffffffffffffffffffffffffff163373ffffffffffffffffffffffffffffffffffffffff1614151561117857600080fd5b6000809054906101000a900473ffffffffffffffffffffffffffffffffffffffff1673ffffffffffffffffffffffffffffffffffffffff167ff8df31144d9c2f0f6b59d69b8b98abd5459d07f2742c4df920b25aae33c6482060405160405180910390a260008060006101000a81548173ffffffffffffffffffffffffffffffffffffffff021916908373ffffffffffffffffffffffffffffffffffffffff160217905550565b60026020528160005260406000208181548110151561123a57fe5b90600052602060002001600091509150508054600181600116156101000203166002900480601f0160208091040260200160405190810160405280929190818152602001828054600181600116156101000203166002900480156112df5780601f106112b4576101008083540402835291602001916112df565b820191906000526020600020905b8154815290600101906020018083116112c257829003601f168201915b505050505081565b6000809054906101000a900473ffffffffffffffffffffffffffffffffffffffff1681565b60036020528060005260406000206000915090505481565b6000809054906101000a900473ffffffffffffffffffffffffffffffffffffffff1673ffffffffffffffffffffffffffffffffffffffff163373ffffffffffffffffffffffffffffffffffffffff1614151561137f57600080fd5b61138881611555565b50565b600081600260008573ffffffffffffffffffffffffffffffffffffffff1673ffffffffffffffffffffffffffffffffffffffff16815260200190815260200160002080549050101515156113de57600080fd5b600260008473ffffffffffffffffffffffffffffffffffffffff1673ffffffffffffffffffffffffffffffffffffffff168152602001908152602001600020805490509050600181038210156114fe57600260008473ffffffffffffffffffffffffffffffffffffffff1673ffffffffffffffffffffffffffffffffffffffff1681526020019081526020016000206001820381548110151561147d57fe5b90600052602060002001600260008573ffffffffffffffffffffffffffffffffffffffff1673ffffffffffffffffffffffffffffffffffffffff168152602001908152602001600020838154811015156114d357fe5b9060005260206000200190805460018160011615610100020316600290046114fc9291906116cf565b505b600260008473ffffffffffffffffffffffffffffffffffffffff1673ffffffffffffffffffffffffffffffffffffffff168152602001908152602001600020805460019003908161154f9190611756565b50505050565b600073ffffffffffffffffffffffffffffffffffffffff168173ffffffffffffffffffffffffffffffffffffffff161415151561159157600080fd5b8073ffffffffffffffffffffffffffffffffffffffff166000809054906101000a900473ffffffffffffffffffffffffffffffffffffffff1673ffffffffffffffffffffffffffffffffffffffff167f8be0079c531659141344cd1fd0a4f28419497f9722a3daafe3b4186f6b6457e060405160405180910390a3806000806101000a81548173ffffffffffffffffffffffffffffffffffffffff021916908373ffffffffffffffffffffffffffffffffffffffff16021790555050565b828054600181600116156101000203166002900490600052602060002090601f016020900481019282601f1061169057805160ff19168380011785556116be565b828001600101855582156116be579182015b828111156116bd5782518255916020019190600101906116a2565b5b5090506116cb9190611782565b5090565b828054600181600116156101000203166002900490600052602060002090601f016020900481019282601f106117085780548555611745565b8280016001018555821561174557600052602060002091601f016020900482015b82811115611744578254825591600101919060010190611729565b5b5090506117529190611782565b5090565b81548183558181111561177d5781836000526020600020918201910161177c91906117a7565b5b505050565b6117a491905b808211156117a0576000816000905550600101611788565b5090565b90565b6117d091905b808211156117cc57600081816117c391906117d3565b506001016117ad565b5090565b90565b50805460018160011615610100020316600290046000825580601f106117f95750611818565b601f0160209004906000526020600020908101906118179190611782565b5b505600a165627a7a723058204597117e104899f99efca878eb087bd244b19aa9f9875a301865f847c65d83990029",
  "source": "pragma solidity ^0.4.24;\n\nimport 'openzeppelin-solidity/contracts/ownership/Ownable.sol';\n\ncontract CryptoCars is Ownable {\n\n    struct CarDescription\n    {\n      uint256 price;\n      address owner;\n      uint posOwnerArray;\n    }\n\n    mapping(string => CarDescription ) private modelNameToDescr;\n    mapping(address => string[] ) public ownerToCars;\n    mapping(address => int ) public moneySpent;\n\n    uint constant minInitialPrice = 1 ether;\n\n    /**\n     * events\n     */\n\n    event CarBought(address buyer, uint256 paid, string model);\n    event LogWithdrawal(uint256 amount, uint256 timestamp);\n\n    /**\n     * functions\n     */\n\n    function eraseForOldOwner(address oldOwner,\n                              uint position) private\n    {\n      require(ownerToCars[oldOwner].length >= position);\n\n      uint lengthArray = ownerToCars[oldOwner].length;\n\n      if(position < lengthArray -1 ) {\n        ownerToCars[oldOwner][position] = ownerToCars[oldOwner][lengthArray - 1];\n      }\n      --ownerToCars[oldOwner].length;\n    }\n\n    function buy(string modelName) public payable {\n        if(0 == modelNameToDescr[modelName].price) {\n            // Initial buy\n            require(msg.value >= minInitialPrice, \"The ether sent was too low for initial buy\");\n        }\n        else {\n            // Re-sale\n            // As by problem description, the previous owner should receive back her investment,\n            // along with 50% of the overhead\n            uint moneyToReturnPreviousOwner = modelNameToDescr[modelName].price +\n            (msg.value - modelNameToDescr[modelName].price) / 2;\n\n            require(msg.value >= modelNameToDescr[modelName].price * 3 / 2 , \"The ether sent was too low for a re-sale\");\n            require(msg.sender != modelNameToDescr[modelName].owner , \"Trying to re-sell a car to same user\");\n\n            address oldOwner = modelNameToDescr[modelName].owner;\n            eraseForOldOwner(modelNameToDescr[modelName].owner,\n                             modelNameToDescr[modelName].posOwnerArray);\n\n            // Give money back to old owner\n            oldOwner.transfer(moneyToReturnPreviousOwner);\n            moneySpent[oldOwner] -= int(moneyToReturnPreviousOwner);\n        }\n\n        modelNameToDescr[modelName].price = msg.value;\n        modelNameToDescr[modelName].owner = msg.sender;\n\n        ownerToCars[msg.sender].push(modelName);\n        modelNameToDescr[modelName].posOwnerArray = ownerToCars[msg.sender].length -1;\n\n        // Mark the expense for the new owner\n        moneySpent[msg.sender] += int(msg.value);\n        emit CarBought(msg.sender, msg.value, modelName);\n    }\n\n    function carInfo(string modelName) public view returns(address ownerAddress, uint256 price)\n    {\n        return (modelNameToDescr[modelName].owner, modelNameToDescr[modelName].price);\n    }\n\n    function withdraw() public onlyOwner {\n        uint256 balance = address(this).balance;\n\n        require(balance > 0, \"Contract balance is 0\");\n\n        owner.transfer(address(this).balance);\n\n        emit LogWithdrawal(balance, now);\n    }\n\n    function getCarsCountOfOwner(address owner) public view returns(uint256) {\n      return ownerToCars[owner].length;\n    }\n\n}\n",
  "sourcePath": "/home/dancho/workspace-ether/LimeAcademy/src-etherlime/contracts/CryptoCars.sol",
  "compiler": {
    "name": "solc",
    "version": "0.4.25+commit.59dbf8f1.Emscripten.clang"
  },
  "schemaVersion": "0.9.8",
  "updatedAt": "2018-10-24T14:10:34.489Z"
}